:100000000C9434000C943E000C943E000C943E0082
:100010000C943E000C943E000C943E000C943E0068
:100020000C943E000C943E000C943E000C943E0058
:100030000C943E000C943E000C943E000C943E0048
:100040000C943E000C943E000C943E000C943E0038
:100050000C943E000C943E000C943E000C943E0028
:100060000C943E000C943E0011241FBECFEFD8E04C
:10007000DEBFCDBF0E9440000C947A000C940000BB
:1000800080E284B983E08AB98CEF8BB989B1E82F1B
:10009000EE1FEE27EE1F29B191E0622F607426FF5C
:1000A00090E079B149B159B129B131E0611130E045
:1000B0008095881F8827881F65B122FB222720F999
:1000C0002323282353FB552750F95E233523232B65
:1000D00044FB332730F939238323822B75FB2227F6
:1000E00020F99E239223892B8295880F807E862B70
:0800F00085B9CCCFF894FFCFD5
:00000001FF
